:100000000C9498000C94C0000C94C0000C94C00098
:100010000C94C0000C94C0000C94C0000C94C00060
:100020000C94C0000C94C0000C94C0000C94C00050
:100030000C94C0000C94C0000C94C0000C94C00040
:100040000C9487050C94C0000C9430050C940A05A0
:100050000C94C0000C94C0000C94C0000C94C00020
:100060000C94D1050C94C000084AD73B3BCE016EDE
:1000700084BCBFFDC12F3D6C74319ABD56833DDAFF
:100080003D00C77F11BED9E4BB4C3E916BAAAABE0E
:10009000000000803F006932635772697465206612
:1000A00061696C65643A20000000000024002700AC
:1000B0002A0000000000250028002B00040404048E
:1000C0000404040402020202020203030303030302
:1000D00001020408102040800102040810200102DF
:1000E00004081020000000080002010000030407BB
:1000F00000000000000000004572726F72207265FF
:100100006164696E672073656E736F720069326334
:10011000526561642074696D656F7574006932633E
:1001200052656164206661696C65643A20000D0F58
:1001300011241FBECFEFD8E0DEBFCDBF11E0A0E09D
:10014000B1E0E4E5FBE202C005900D92A433B107F3
:10015000D9F723E0A4E3B1E001C01D92A034B207B7
:10016000E1F710E0C8E9D0E004C02197FE010E9449
:10017000EC0FC739D107C9F70E9419090C94A815CB
:100180000C940000FC01918D828D981761F0828D96
:10019000DF01A80FB11D5D968C91928D9F5F9F73BB
:1001A000928F90E008958FEF9FEF0895FC01918D5D
:1001B000828D981731F0828DE80FF11D858D90E0CA
:1001C00008958FEF9FEF0895FC01918D228D892F67
:1001D00090E0805C9F4F821B91098F73992708954F
:1001E00083E492E00E94E40021E0892B09F420E0FE
:1001F000822F0895FC01848DDF01A80FB11DA35A41
:10020000BF4F2C91848D90E001968F739927848F36
:10021000A689B7892C93A089B1898C9180648C932D
:10022000938D848D981306C00288F389E02D808118
:100230008F7D80830895EF92FF920F931F93CF934A
:10024000DF93EC0181E0888F9B8D8C8D981305C026
:10025000E889F989808185FD24C0F62E0B8D10E098
:100260000F5F1F4F0F731127E02E8C8DE8120CC00B
:100270000FB607FCFACFE889F989808185FFF5CFB1
:10028000CE010E94FA00F1CF8B8DFE01E80FF11D27
:10029000E35AFF4FF0820B8FEA89FB8980818062ED
:1002A00007C0EE89FF896083E889F98980818064CD
:1002B000808381E090E0DF91CF911F910F91FF90BB
:1002C000EF900895CF93DF93EC01888D8823C9F0D8
:1002D000EA89FB89808185FD05C0A889B9898C914F
:1002E00086FD0FC00FB607FCF5CF808185FFF2CFEA
:1002F000A889B9898C9185FFEDCFCE010E94FA00C3
:10030000E7CFDF91CF91089580E090E0892B29F02D
:100310000E94F00081110C940000089590E0FC010F
:10032000EC51FF4F3491FC01E053FF4F2491FC014D
:10033000E454FF4FE491EE2309F43BC0332339F139
:10034000333091F038F43130A9F0323001F584B512
:100350008F7D12C0373091F03830A1F03430B9F4CD
:10036000809180008F7D03C0809180008F77809383
:1003700080000DC084B58F7784BD09C08091B00026
:100380008F7703C08091B0008F7D8093B000F0E044
:10039000EE0FFF1FEE54FF4FA591B4918FB7F89465
:1003A000EC91611103C020952E2301C02E2B2C93BC
:1003B0008FBF0895CF93DF9390E0FC01E053FF4F90
:1003C0002491FC01E454FF4F8491882361F190E073
:1003D000880F991FFC01E855FF4FC591D491FC018E
:1003E000EE54FF4FA591B491611109C09FB7F894E5
:1003F0008881209582238883EC912E230BC0623064
:1004000061F49FB7F8943881822F80958323888385
:10041000EC912E2B2C939FBF06C08FB7F894E881E8
:100420002E2B28838FBFDF91CF9108951F93CF93F9
:10043000DF93182FEB0161E00E94DA01209711F49D
:1004400060E004C0CF3FD10539F461E0812FDF9136
:10045000CF911F910C948E01E12FF0E0EC51FF4FF2
:10046000E491E330F9F048F4E130B9F0E230A1F57D
:1004700084B5806284BDC8BD34C0E730E9F0E8309F
:1004800019F1E43049F5809180008062809380000A
:10049000D0938B00C0938A0024C084B5806884BD4B
:1004A000C7BD1FC080918000806880938000D0937A
:1004B0008900C093880015C08091B0008068809347
:1004C000B000C093B3000DC08091B00080628093F3
:1004D000B000C093B40005C0C038D1050CF0B5CF52
:1004E000AFCFDF91CF911F9108958E3008F08E50DD
:1004F0008770806480937C0080917A008064809310
:100500007A0080917A0086FDFCCF8091780020915E
:10051000790090E0922B08952F923F924F925F9234
:100520006F927F928F929F92AF92BF92CF92DF9203
:10053000EF92FF920F931F93CF93DF93CDB7DEB768
:100540006C970FB6F894DEBF0FBECDBF1C014D8B6C
:100550005E8B6F8B788FC901B801D10150962D91B8
:100560003D914D915C915397298B3A8B4B8B5C8BD2
:100570000E94F20F9B01AC01F101648B758B868B9D
:10058000978BC701B6010E94B314D1011C962D911F
:100590003D914D915C911F970E94F30F6D877E876F
:1005A0008F87988BD10194962D913D914D915C91BF
:1005B00097972D833E834F835887C701B6010E94CA
:1005C000B3144B015C01F101448C558C668C778C23
:1005D00020A131A142A153A129873A874B875C878B
:1005E000A30192010E94F20F29853A854B855C8513
:1005F0000E94F20FF10120813181428153810E94DA
:10060000F30F9B01AC01C701B6010E94B314D101E5
:1006100058962D913D914D915C915B970E94F30FFF
:1006200069837A838B839C83A5019401C301B20102
:100630000E94F20F2B013C01A501940169857A8586
:100640008B859C850E94F20F69877A878B879C87B0
:10065000F1012481358146815781C701B6010E948D
:10066000B3149B01AC016D817E818F8198850E94BE
:10067000F30F698F7A8F8B8F9C8FD10118962D91F4
:100680003D914D915C911B9769817A818B819C8111
:100690000E94F30F6B017C019B01AC0169817A819F
:1006A0008B819C810E94D1104B015C01A7019601B6
:1006B00069857A858B859C850E94D1106B017C01B0
:1006C0002D853E854F8558896D897E898F89988DC6
:1006D0000E94F20F6D837E838F8398879B01AC010C
:1006E000C501B4010E94B3149B01AC016D857E85E8
:1006F0008F8598890E94F30F6D877E878F87988BEF
:10070000F10164877587868797872D813E814F81A8
:100710005885C701B6010E94B3149B01AC016989D9
:100720007A898B899C890E94F30FD10150966D9331
:100730007D938D939C93539729813A814B815C8162
:10074000C501B4010E94B3149B01AC0169817A8197
:100750008B819C810E94F20FF101608F718F828FDB
:10076000938FA3019201C501B4010E94B3149B01B0
:10077000AC01C301B2010E94F20FD1015C966D93EE
:100780007D938D939C935F9729813A814B815C8106
:10079000C701B6010E94B3149B01AC0169857A853B
:1007A0008B859C850E94F20FF10160A371A382A347
:1007B00093A3A3019201C701B6010E94B3149B0148
:1007C000AC01698D7A8D8B8D9C8D0E94F20FD101C9
:1007D00094966D937D938D939C9397976D857E856D
:1007E0008F8598896C960FB6F894DEBF0FBECDBF8B
:1007F000DF91CF911F910F91FF90EF90DF90CF90FD
:10080000BF90AF909F908F907F906F905F904F9030
:100810003F902F90089585ED8093BC008091BC009F
:1008200084FDFCCF10921E02089540915601262FA0
:1008300030E0240F311D21323105DCF420911E02FD
:100840002430C9F4FC0180E090E0861758F4309120
:1008500056012191DC01AC5CBE4FA30FB11D2C935E
:100860000196F3CF80915601680F6093560180E0A6
:10087000089581E0089582E008950895E091E801E7
:100880008091E901E81730F4F0E0E853FE4F8081F1
:1008900090E008958FEF9FEF08959091E801809187
:1008A000E901981750F4E92FF0E0E853FE4F20815A
:1008B00030E09F5F9093E80102C02FEF3FEFC90146
:1008C00008958091E90190E02091E801821B91094F
:1008D0000895CF92DF92EF92FF920F931F93CF93E1
:1008E000DF937C01262F972F8A0180911F02882396
:1008F00091F0C62FD72F6E01C40ED51ECC15DD0585
:1009000071F06991D701ED91FC910190F081E02D9A
:10091000C7010995F3CF642F822F0E941504C801E7
:10092000DF91CF911F910F91FF90EF90DF90CF90CB
:100930000895CF93DF931F92CDB7DEB769832091DF
:100940001F022223D1F020914202203240F021E008
:1009500030E0FC013383228380E090E015C0809179
:100960002002E82FF0E0EF5DFD4F998190838F5FCB
:10097000809320028093420205C061E0CE0101967F
:100980000E94150481E090E00F90DF91CF910895CF
:100990000E9403140F931F93CF93DF9300D0CDB722
:1009A000DEB78B0191E090931F0298E6909341028D
:1009B0001092200210924202682F80EE92E02A8369
:1009C00049830E949904498150E0B80180EE92E089
:1009D0000E9469042A81822F0E949E07182F882373
:1009E00089F086E990E00E947D07812F90E0A0E0E9
:1009F000B0E04AE0BC01CD010E943C0786E291E0F4
:100A00000E942A07812F0F900F90DF91CF911F91A5
:100A10000F9108951F920F920FB60F9211242F93EA
:100A20003F934F935F936F937F938F939F93AF9376
:100A3000BF93EF93FF9383E492E00E94FA00FF914B
:100A4000EF91BF91AF919F918F917F916F915F9146
:100A50004F913F912F910F900FBE0F901F901895BF
:100A60001F920F920FB60F9211242F938F939F9383
:100A7000EF93FF93E0915302F09154028081E09153
:100A80005902F0915A0282FD12C0908180915C025D
:100A90008F5F8F7320915D02821751F0E0915C02AD
:100AA000F0E0ED5BFD4F958F80935C0201C080818B
:100AB000FF91EF919F918F912F910F900FBE0F900B
:100AC0001F9018953FB7F894809180019091810113
:100AD000A0918201B091830126B5A89B05C02F3F4C
:100AE00019F00196A11DB11D3FBFBA2FA92F982F54
:100AF0008827820F911DA11DB11DBC01CD0142E0CF
:100B0000660F771F881F991F4A95D1F708951F9286
:100B10000F920FB60F9211242F933F938F939F93B1
:100B2000AF93BF9380917C0190917D01A0917E0154
:100B3000B0917F0130917B0123E0230F2D3720F40A
:100B40000196A11DB11D05C026E8230F0296A11D27
:100B5000B11D20937B0180937C0190937D01A09334
:100B60007E01B0937F018091800190918101A091DD
:100B70008201B09183010196A11DB11D8093800176
:100B800090938101A0938201B0938301BF91AF91B3
:100B90009F918F913F912F910F900FBE0F901F90BB
:100BA00018951F920F920FB60F9211242F933F9317
:100BB0004F935F936F937F938F939F93AF93BF9365
:100BC000EF93FF938091B900887F803609F49CC031
:100BD00068F5883209F45BC090F4803109F454C0A0
:100BE00038F4882309F4F6C0883009F44DC0F6C003
:100BF000883109F44CC0803209F45DC0EFC0803404
:100C000009F468C048F4803309F455C0883309F00A
:100C1000E5C080931C02D8C0803509F44FC08835E8
:100C200009F45DC0883409F0D9C0D6C0883909F408
:100C3000C7C0A8F4883709F467C038F4883609F4C7
:100C400063C0803709F460C0C9C0883809F4B8C0EF
:100C5000803909F45FC0803809F0C0C05BC0803BB8
:100C600009F486C038F4803A09F466C0883A09F479
:100C70007FC0B4C0803C09F4A7C0883C09F4A4C07C
:100C8000883B09F48AC0AAC08091F90110C09091F4
:100C90001B0280911A02981770F5E0911B0281E007
:100CA0008E0F80931B02F0E0E650FE4F8081809310
:100CB000BB0085EC86C080931C028EC0E0911B02B5
:100CC00081E08E0F80931B028091BB00F0E0E65024
:100CD000FE4F808390911B0280911A026EC0E091BA
:100CE0001B0281E08E0F80931B028091BB00F0E01D
:100CF000E650FE4F808380911D0281116DC081E01E
:100D00008093F80184EA61C083E080931E02109210
:100D10007A01CFCF80917A01803208F051C0E09102
:100D20007A0181E08E0F80937A018091BB00F0E020
:100D3000E65AFE4F8083BDCF85EC8093BC001092B5
:100D40001E0280917A01803230F4E0917A01F0E065
:100D5000E65AFE4F108260917A0170E0E0915801EE
:100D6000F09159018AE591E0099510927A0136C017
:100D700084E080931E021092570110925601E09178
:100D80005401F0915501099580915601811105C0DA
:100D900081E08093560110923401E091570181E087
:100DA0008E0F80935701F0E0EC5CFE4F80818093C2
:100DB000BB009091570180915601981708F479CFA4
:100DC00085E88093BC000AC085EC8093BC0010923B
:100DD0001E0204C010921C020E940B04FF91EF91AE
:100DE000BF91AF919F918F917F916F915F914F9143
:100DF0003F912F910F900FBE0F901F901895CF929B
:100E0000DF92EF92FF920F931F93CF93DF936C01CA
:100E10007A018B01C0E0D0E0CE15DF0589F0D80162
:100E20006D918D01D601ED91FC910190F081E02D45
:100E3000C6010995892B11F47E0102C02196ECCFE1
:100E4000C701DF91CF911F910F91FF90EF90DF903D
:100E5000CF900895009769F0FC0101900020E9F718
:100E60003197AF01481B590BBC0183E492E00C940D
:100E7000FF0680E090E008958F929F92AF92BF921C
:100E80000F931F93CF93DF93CDB7DEB7A1970FB624
:100E9000F894DEBF0FBECDBF19A2423008F44AE07D
:100EA0008E010F5D1F4F842E912CA12CB12CA5011A
:100EB00094010E94B60FE62FB901CA010150110931
:100EC000EA3014F4E05D01C0E95CD801EC93232B17
:100ED000242B252B61F7C8010E942A07A1960FB683
:100EE000F894DEBF0FBECDBFDF91CF911F910F9160
:100EF000BF90AF909F908F9008950F931F93CF93C3
:100F0000DF938C01C0E0D0E0F801EC0FFD1F64918D
:100F1000662371F0E0914302F09144020190F08168
:100F2000E02D83E492E00995892B11F02196ECCF16
:100F3000CE01DF91CF911F910F910895382F20910D
:100F4000420290914102213208F049C080911E0274
:100F50008111FCCF42E040931E0230931D023FEF0F
:100F600030931C0210921B0220931A02A1E2B2E0FD
:100F70004AEF51E0FA013E2F341B321718F43D912D
:100F80003193F9CF1092F9012091F901990F922B29
:100F90009093F9019091F801913061F41092F80169
:100FA0009091F9019093BB009091BC0093FDF8CF14
:100FB00095EC01C095EE9093BC0090911E0292308A
:100FC000E1F390911C029F3F79F080911C028032E6
:100FD00041F080911C02803331F084E005C081E053
:100FE00003C082E001C083E010922002109242020E
:100FF00010921F020895CF92DF92EF92FF920F930B
:101000001F93CF93DF93F62E91E090931F0298E603
:10101000909341021092200210924202682F80EEBB
:1010200092E00E94990480E00E949E07C82F8823C6
:1010300081F08DE191E00E947D076C2F70E080E0EF
:1010400090E04AE00E943C0786E291E00E942A0775
:1010500079C0C0911E02C111FCCFDF2D20E22F15F7
:1010600008F4D0E281E080931E0280931D029FEF7E
:1010700090931C0210921B029D0F90931A02809372
:10108000F9018091F901806D8093F9018091F80157
:10109000813061F41092F8018091F9018093BB00D6
:1010A0008091BC0083FDF8CF85EC01C085EE809374
:1010B000BC0080911E028130E1F380911B028D17EC
:1010C00010F4D0911B02AAEFB1E028EC31E0F90155
:1010D0008E2F821B8D1718F48D918193F9CF10926A
:1010E000E801D093E9018AEEC82E81E0D82E86016E
:1010F000802F8C198F1530F58091E801D81741F0B9
:1011000080EE92E00E944D04F80181938F01F0CFB0
:101110000E9462056B017C010E946205DC01CB012B
:101120008C199D09AE09BF09883E9340A105B10500
:1011300098F38DE091E00E947D0786E291E00E94A5
:101140002A07C5E08C2FDF91CF911F910F91FF905F
:10115000EF90DF90CF9008958F929F92AF92BF92C1
:10116000CF92DF92EF92FF920E9462054B015C01E9
:1011700084E6C82ED12CE12CF12C0E946205DC0102
:10118000CB0188199909AA09BB09883E9340A1059A
:10119000B10558F021E0C21AD108E108F10888EE43
:1011A000880E83E0981EA11CB11CC114D104E10477
:1011B000F10419F7FF90EF90DF90CF90BF90AF90C0
:1011C0009F908F900895CF92DF92EF92FF92CF93EE
:1011D000DF936C01990FEE08FF08F7FE1FC0E09146
:1011E0004302F09144020190F081E02D6DE283E42E
:1011F00092E00995EC0166277727CB016C197D09F0
:101200008E099F094AE00E943C078C0F9D1FDF91C9
:10121000CF91FF90EF90DF90CF9008954AE0C70103
:10122000B601DF91CF91FF90EF90DF90CF900C94BB
:101230003C07CF93DF93CDB7DEB7AD970FB6F894E9
:10124000DEBF0FBECDBF789484B5826084BD84B507
:10125000816084BD85B5826085BD85B5816085BDB1
:1012600080916E00816080936E0010928100809169
:1012700081008260809381008091810081608093F1
:101280008100809180008160809380008091B10016
:1012900084608093B1008091B00081608093B00041
:1012A00080917A00846080937A0080917A008260D5
:1012B00080937A0080917A00816080937A00809197
:1012C0007A00806880937A001092C100E091530206
:1012D000F091540282E08083E0914F02F09150023D
:1012E0001082E0915102F091520280E180831092CD
:1012F0005B02E0915702F091580286E08083E09112
:101300005502F0915602808180618083E091550200
:10131000F0915602808188608083E0915502F091BF
:101320005602808180688083E0915502F0915602D8
:1013300080818F7D80831092E8011092E9011092E4
:1013400020021092420210921E0281E080931D0240
:101350001092F80161E082E10E948E0161E083E178
:101360000E948E018091B9008E7F8093B900809198
:10137000B9008D7F8093B90088E48093B80085E43C
:101380008093BC0060E08EE00E94DA0160E080E1C2
:101390000E94DA0161E089E00E94DA0161E08AE0FE
:1013A0000E94DA0161E08BE00E94DA0160E070E007
:1013B00089E00E9416028CE08093B80087E0809359
:1013C000EA011092EB011092EC011092ED0120E085
:1013D00044E06AEE71E089E10E94CA048111F7CF0E
:1013E00011E01B8B21E041E0BE016D5E7F4F8BE67B
:1013F0000E94CA048111F5CF61E085E70E94FB07D6
:101400008111FACF8091EA01883629F088EF90E0C7
:101410000E947D07FFCF0E94AC0866E08BE30E942C
:10142000FB078111FACF6091EA0170E0762F662701
:101430008091EB01682B072E000C880B990B0E9402
:1014400054146C8B7D8B8E8B9F8B6093C401709337
:10145000C5018093C6019093C7016091EC0170E0D3
:10146000762F66278091ED01682B072E000C880BE4
:10147000990B0E9454144B015C016093C00170935E
:10148000C1018093C2019093C3016091EE0170E0AD
:10149000762F66278091EF01682B072E000C880BB2
:1014A000990B0E9454146B017C016093BC017093F2
:1014B000BD018093BE019093BF019B01AC01C501AA
:1014C000B4010E94721021EE3EE245E652E40E9411
:1014D000B3142B013C01A5019401C501B4010E9484
:1014E000B3144B015C01A7019601C701B6010E942C
:1014F000B3149B01AC01C501B4010E94F30F0E941B
:10150000B3119B01AC016C897D898E899F899058AC
:101510000E94D1100E94A21021EE3EE245E652E464
:101520000E94B31440922003509221036092220340
:10153000709223036093F8027093F9028093FA0289
:101540009093FB0240929E0150929F016092A001F5
:101550007092A10160939601709397018093980116
:10156000909399014092A2015092A3016092A4012C
:101570007092A501609392017093930180939401FE
:10158000909395010E9462056093AA017093AB014C
:101590008093AC019093AD016DEA70E089E00E9408
:1015A00016028DEA90E090938501809384018091EA
:1015B00090019091910199A788A7DE0111961D01D4
:1015C0006EE08BE30E94FB078111FACF6091EA0184
:1015D00070E0762F66278091EB01682B072E000CB8
:1015E000880B990B0E9454146C8F7D8F8E8F9F8F68
:1015F0006093C4017093C5018093C6019093C701A5
:101600006091EC0170E0762F66278091ED01682BE8
:10161000072E000C880B990B0E9454144B015C019F
:101620006093C0017093C1018093C2019093C30184
:101630006091EE0170E0762F66278091EF01682BB4
:10164000072E000C880B990B0E9454146B017C012F
:101650006093BC017093BD018093BE019093BF0164
:101660008091F00190E0982F88272091F101822B42
:101670009093BB018093BA016091F20170E0762FE4
:1016800066278091F301682B072E000C880B990BBD
:101690000E9454142B013C016093B6017093B70172
:1016A0008093B8019093B9016091F40170E0762FB6
:1016B00066278091F501682B072E000C880B990B8B
:1016C0000E94541468A379A38AA39BA36093B201D8
:1016D0007093B3018093B4019093B5016091F601CA
:1016E00070E0762F66278091F701682B072E000C9B
:1016F000880B990B0E9454146093AE017093AF0154
:101700008093B0019093B1010E9462050091AA01FB
:101710001091AB012091AC013091AD01601B710BB8
:10172000820B930B0E94521420E034E244E759E408
:101730000E94D110688F798F8A8F9B8F0E946205DB
:101740006093AA017093AB018093AC019093AD01BB
:10175000A7019601C501B4010E94721021EE3EE27C
:1017600045E652E40E94B3146C8B7D8B8E8B9F8B6D
:10177000A5019401C501B4010E94B3144B015C01A1
:10178000A7019601C701B6010E94B3149B01AC01E9
:10179000C501B4010E94F30F0E94B3119B01AC017B
:1017A0006C8D7D8D8E8D9F8D90580E94D1100E94E2
:1017B000A21021EE3EE245E652E40E94B3146AA76D
:1017C0007BA78CA79DA720E030E043E053E4C30152
:1017D000B2010E94D1106CA37DA38EA39FA320E031
:1017E00030E043E053E468A179A18AA19BA10E9463
:1017F000D1104B015C0120E030E044EB52EC6C89ED
:101800007D898E899F890E944D1487FF10C020E03A
:1018100030E044EB52E46091A6017091A701809101
:10182000A8019091A9010E94A0111816E4F020E0EF
:1018300030E044EB52E46C897D898E899F890E9457
:10184000A0111816ACF520E030E044EB52EC6091AA
:10185000A6017091A7018091A8019091A9010E9411
:101860004D1487FF25C08C899D89AE89BF898093DF
:10187000200390932103A0932203B093230380932A
:10188000A2019093A301A093A401B093A50180931A
:10189000A6019093A701A093A801B093A9018093FA
:1018A0009E0190939F01A093A001B093A10118C045
:1018B000C88CD98CEA8CFB8C0CA11DA12EA13FA158
:1018C0004C895D896E897F8984E193E00E948C0256
:1018D0006093A6017093A7018093A8019093A9013A
:1018E0004090A6015090A7016090A8017090A901B6
:1018F00020E030E0A901C301B2010E94A011181636
:101900005CF420E030E044EB52E4C301B2010E94F9
:10191000A01118165CF00EC020E030E044EB52EC51
:10192000C301B2010E944D1487FF04C0B7FAB094FE
:10193000B7F8B094C88CD98CEA8CFB8C95018401E3
:101940004AA55BA56CA57DA58CEE92E00E948C0259
:101950006C8F7D8F8E8F9F8F60939A0170939B0108
:1019600080939C0190939D01288D398D4A8D5B8DCC
:101970006CA17DA18EA19FA10E94B3146CA37DA335
:101980008EA39FA320919E0130919F014091A001C1
:101990005091A1010E94F30F68A379A38AA39BA38E
:1019A00060939E0170939F018093A0019093A10189
:1019B000288D398D4A8D5B8DC501B4010E94B31409
:1019C0004B015C0120919601309197014091980163
:1019D000509199010E94F30F6B017C016093960175
:1019E0007093970180939801909399012091A2019F
:1019F0003091A3014091A4015091A5016CA17DA15A
:101A00008EA19FA10E94F30F2BE734E14EE65FE326
:101A10000E94B314688F798F8A8F9B8F29E23CE5EF
:101A20004FE85DE36C897D898E899F890E94B3149C
:101A30009B01AC01688D798D8A8D9B8D0E94F30F7F
:101A40006093A2017093A3018093A4019093A501D8
:101A50002091920130919301409194015091950110
:101A6000C501B4010E94F30F2BE734E14EE65FE3BA
:101A70000E94B3144B015C0129E23CE54FE85DE3B1
:101A80006AA57BA58CA59DA50E94B3149B01AC0102
:101A9000C501B4010E94F30F60939201709393010A
:101AA000809394019093950120E030E044E353EC5F
:101AB00068A179A18AA19BA10E944D1487FD0CC049
:101AC00020E030E044E353E468A179A18AA19BA11E
:101AD0000E94A011181644F440929E0150929F015A
:101AE0006092A0017092A10120E030E044E353EC49
:101AF000C701B6010E944D1487FD0AC020E030E006
:101B000044E353E4C701B6010E94A011181664F41F
:101B10008C8D9D8DAE8DBF8D809396019093970196
:101B2000A0939801B0939901A8A5B9A5ED91FC9156
:101B300040825182628273828C8D9D8DAE8DBF8D6D
:101B400084839583A683B78320E030E0A901C30195
:101B5000B2010E94A01118166CF420E030E044EBB2
:101B600052E4C301B2010E944D14182F111F112716
:101B7000111F0CC011E020E030E044EB52ECC30137
:101B8000B2010E94A01118160CF010E0A8A5B9A58A
:101B900012961C9310928F0110928E0110928D015B
:101BA00010928C0180E10E947502873693400CF4FC
:101BB00043C089E291E00E942A0782E391E00E94FB
:101BC0002A07E8A5F9A58281882309F4BFC020E08F
:101BD00030E044EB52E46091A6017091A70180913E
:101BE000A8019091A9010E94F30F28EB3EE145E87E
:101BF0005FE30E94D1100E94431170938D016093A6
:101C00008C0120E030E044EB52E460919A01709145
:101C10009B0180919C0190919D010E94F30F28EB04
:101C20003EE145E85FE30E94D1100E9443117093AA
:101C30008F0160938E018AC08EE00E947502AC0114
:101C400020918A0130918B01C901841B950B9093DF
:101C500089018093880150938B0140938A014B380E
:101C600052400CF473C064E170E00E94A20FCB01FB
:101C700070938901609388014AE0B1010E941814B1
:101C8000F10101900020E9F731977F01E218F30894
:101C9000B7016F5F7F4F80E090E00E9439136C01C5
:101CA000009731F0DC011C92B1010E94111402C0B6
:101CB000E12CF12CA701B60183E492E00E94FF061B
:101CC000C6010E94A11282E391E00E942A0780913E
:101CD00088019091890197FF1FC020918601309162
:101CE0008701E8A5F9A54281411103C0919581952D
:101CF0009109820F931F853691051CF084E690E0D0
:101D000002C097FD05C0909387018093860104C0AF
:101D1000109287011092860160918601709187016F
:101D2000072E000C880B990B0E94541424EA30E70C
:101D30004DED5FE30E94B3140E9443118DEA90E0E1
:101D4000861B970B909385018093840180918C0171
:101D500090918D018E3A910514F08DEA90E097FFF5
:101D600002C080E090E090938D0180938C0180917F
:101D70008E0190918F018E3A910514F08DEA90E0DA
:101D800097FF02C080E090E090938F0180938E01D6
:101D900080918401909185018E3A910514F08DEA2D
:101DA00090E097FF02C080E090E0909385018093DF
:101DB00084010E94E30882E391E00E942A07809157
:101DC0008C0190918D010E94E30882E391E00E94D2
:101DD0002A0780918E0190918F010E94E30886E28C
:101DE00091E00E942A07609184017091850189E049
:101DF0000E94160260918C0170918D018AE00E9410
:101E0000160260918E0170918F018BE00E94160284
:101E10000E94AC080E948401D3CB0F931F93E3E48C
:101E2000F2E01382128288EE93E0A0E0B0E08483B7
:101E30009583A683B7832AE031E03183208325ECA4
:101E400030E03587248724EC30E03787268720EC84
:101E500030E0318B208B21EC30E0338B228B22EC75
:101E600030E0358B248B26EC30E0378B268B118EBF
:101E7000128E138E148EE0EEF2E0138212828483AF
:101E80009583A683B7838AE191E091838083E4E11F
:101E9000F3E00FE612E123E83AE3008311832283A3
:101EA000338346EA5BE964E47BE3448355836683DA
:101EB00077838FE892ECA5EFBCE380879187A287B8
:101EC000B3871486158616861786108A118A128A99
:101ED000138A108E118E128E138E148E158E168EFE
:101EE000178E10A211A212A213A214A215A216A25A
:101EF00017A2ECEEF2E00083118322833383448344
:101F000055836683778380879187A287B3871486FA
:101F1000158616861786108A118A128A138A108EE1
:101F2000118E128E138E148E158E168E178E10A291
:101F300011A212A213A214A215A216A217A21F91F7
:101F40000F91089597FB072E16F4009407D077FDA4
:101F500009D00E94D80F07FC05D03EF490958195DA
:101F60009F4F0895709561957F4F0895A1E21A2EB5
:101F7000AA1BBB1BFD010DC0AA1FBB1FEE1FFF1F2D
:101F8000A217B307E407F50720F0A21BB30BE40B7D
:101F9000F50B661F771F881F991F1A9469F76095C4
:101FA0007095809590959B01AC01BD01CF0108957E
:101FB000AA1BBB1B51E107C0AA1FBB1FA617B7076F
:101FC00010F0A61BB70B881F991F5A95A9F780958B
:101FD0009095BC01CD010895EE0FFF1F0590F4917F
:101FE000E02D09945058BB27AA270E940A100C9490
:101FF00037150E94291538F00E94301520F039F469
:102000009F3F19F426F40C9426150EF4E095E7FB97
:102010000C942015E92F0E94481558F3BA1762074F
:1020200073078407950720F079F4A6F50C946A15D8
:102030000EF4E0950B2EBA2FA02D0B01B9019001E3
:102040000C01CA01A0011124FF27591B99F0593F27
:1020500050F4503E68F11A16F040A22F232F342F6F
:102060004427585FF3CF469537952795A795F040BD
:102070005395C9F77EF41F16BA0B620B730B840BD2
:10208000BAF09150A1F0FF0FBB1F661F771F881F8A
:10209000C2F70EC0BA0F621F731F841F48F48795E2
:1020A00077956795B795F7959E3F08F0B0CF9395D4
:1020B000880F08F09927EE0F9795879508950E944D
:1020C000291560F080E891E009F49EEF0E94301538
:1020D00028F040E851E071F45EEF0CC00C94261536
:1020E0000C946A15E92FE0780E94481540F3092EF8
:1020F000052AB1F3261737074807590738F00E2E7F
:1021000007F8E02569F0E025E0640AC0EF6307F80E
:10211000009407FADB01B9019D01DC01CA01AD01A0
:10212000EF930E94E8100E9437150E94A2105F9161
:10213000552339F02BED3FE049E450FD49EC0C9478
:10214000F30F0895DF93DD27B92FBF7740E85FE3F2
:102150001616170648075B0718F4D92F0E94A51119
:102160009F938F937F936F930E94F311E8E6F0E0C3
:102170000E9479110E9437152F913F914F915F91E5
:102180000E94C614DD2351F09058A2EA2AED3FE0E8
:1021900049EC5FE3D0785D270E940A10DF910C9430
:1021A00037150E94E5100C9437150E94301558F031
:1021B0000E94291540F029F45F3F29F00C94201566
:1021C00051110C946B150C9426150E94481568F358
:1021D0009923B1F3552391F3951B550BBB27AA27E0
:1021E00062177307840738F09F5F5F4F220F331F1A
:1021F000441FAA1FA9F335D00E2E3AF0E0E832D0E2
:1022000091505040E695001CCAF72BD0FE2F29D0E4
:10221000660F771F881FBB1F261737074807AB07B6
:10222000B0E809F0BB0B802DBF01FF2793585F4F2B
:102230003AF09E3F510578F00C9420150C946B15E4
:102240005F3FE4F3983ED4F3869577956795B7950D
:10225000F7959F5FC9F7880F911D9695879597F918
:102260000895E1E0660F771F881FBB1F6217730791
:102270008407BA0720F0621B730B840BBA0BEE1FA6
:1022800088F7E09508950E944A116894B1110C9462
:102290006B1508950E94501588F09F5798F0B92F3C
:1022A0009927B751B0F0E1F0660F771F881F991F8B
:1022B0001AF0BA95C9F714C0B13091F00E946A15AE
:1022C000B1E008950C946A15672F782F8827B85FBE
:1022D00039F0B93FCCF3869577956795B395D9F7E3
:1022E0003EF490958095709561957F4F8F4F9F4FED
:1022F0000895DF93CF931F930F93FF92EF92DF9296
:102300007B018C01689406C0DA2EEF010E94C6148E
:10231000FE01E894A5912591359145915591A6F33B
:10232000EF010E940A10FE019701A801DA9469F7F3
:10233000DF90EF90FF900F911F91CF91DF91089563
:102340000E948F1408F48FEF08959B01AC0160E0A8
:1023500070E080E89FE30C94D11019F416F40C940B
:1023600026150C94F7110E945015B8F39923C9F360
:10237000B6F39F57550B87FF0E9405120024A0E675
:1023800040EA900180585695979528F4805C660F36
:10239000771F881F20F026173707480730F4621B85
:1023A000730B840B202931294A2BA6951794079487
:1023B000202531254A2758F7660F771F881F20F000
:1023C00026173707480730F4620B730B840B200D78
:1023D000311D411DA09581F7B901842F9158880FB7
:1023E0009695879508959B01AC010C94B3149F3F7B
:1023F00031F0915020F4879577956795B795880FC0
:10240000911D9695879597F9089591505040660FC4
:10241000771F881FD2F70895CF93DF9382309105FD
:1024200010F482E090E0E0913E03F0913F0320E061
:1024300030E0C0E0D0E0309711F140815181481781
:102440005907C0F04817590761F48281938120979A
:1024500019F09B838A832BC090933F0380933E03A4
:1024600026C02115310519F04217530718F49A01B7
:10247000BE01DF01EF010280F381E02DDCCF2115E9
:10248000310509F1281B390B2430310590F41296DF
:102490008D919C9113976115710521F0FB01938338
:1024A000828304C090933F0380933E03FD013296E4
:1024B00044C0FD01E20FF31F819391932250310933
:1024C0002D933C933AC020913C0330913D03232B44
:1024D00041F4209102013091030130933D03209398
:1024E0003C0320910001309101012115310541F497
:1024F0002DB73EB74091040150910501241B350BC7
:10250000E0913C03F0913D03E217F307A0F42E1B8A
:102510003F0B2817390778F0AC014E5F5F4F241747
:10252000350748F04E0F5F1F50933D0340933C0327
:102530008193919302C0E0E0F0E0CF01DF91CF9171
:1025400008950F931F93CF93DF93009709F48CC0E6
:10255000FC0132971382128200913E0310913F03D7
:102560000115110581F420813181820F931F209183
:102570003C0330913D032817390779F5F0933D036B
:10258000E0933C0371C0D80140E050E0AE17BF07B4
:1025900050F412962D913C911397AD012115310500
:1025A00009F1D901F3CF9D01DA01338322836081E0
:1025B0007181860F971F8217930769F4EC012881B8
:1025C0003981260F371F2E5F3F4F318320838A8149
:1025D0009B8193838283452B29F4F0933F03E093FF
:1025E0003E0342C01396FC93EE931297ED0149917E
:1025F00059919E01240F351FE217F30771F4808172
:102600009181840F951F029611969C938E938281DF
:10261000938113969C938E931297E0E0F0E0D8019B
:1026200012968D919C911397009719F0F8018C01E7
:10263000F6CF8D919C9198012E5F3F4F820F931F93
:1026400020913C0330913D032817390769F43097F6
:1026500029F410923F0310923E0302C013821282AB
:1026600010933D0300933C03DF91CF911F910F9195
:102670000895A0E0B0E0EFE3F3E10C947515EC01F0
:10268000009721F4CB010E940C12B8C0FC01E60FA8
:10269000F71F9C0122503109E217F30708F4ACC080
:1026A000D9010D911C91119706171707B0F005304D
:1026B000110508F49FC0C80104978617970708F40E
:1026C00099C002501109061B170B019311936D93CA
:1026D0007C93CF010E94A1128DC05B01A01AB10AA8
:1026E0004C01800E911EA0913E03B0913F0340E04B
:1026F00050E0E12CF12C109709F44AC0A815B90557
:10270000D1F56D907C901197630182E0C80ED11CC9
:10271000CA14DB0480F1A3014A195B096A0182E053
:10272000C80ED11C1296BC9012971396AC91B5E0CE
:10273000CB16D10440F0B282A38351834083D901E8
:102740006D937C930AC00E5F1F4FC301800F911FD2
:10275000F90191838083EB2DFA2FE114F10431F01C
:10276000D7011396FC93EE93129744C0F0933F0366
:10277000E0933E033FC08D919C91119748175907F4
:1027800008F4AC017D0112960D90BC91A02DB3CF41
:1027900080913C0390913D0388159905E1F446171B
:1027A0005707C8F48091000190910101009741F40E
:1027B0008DB79EB74091040150910501841B950B84
:1027C000E817F907C8F4F0933D03E0933C03F901DF
:1027D000718360830FC0CB010E940C127C010097B3
:1027E00059F0A801BE010E940814CE010E94A11256
:1027F000C70104C0CE0102C080E090E0CDB7DEB7D3
:10280000EEE00C94911581E090E0F8940C94A815FA
:10281000FB01DC0102C001900D9241505040D8F7FD
:102820000895FB01DC0101900D920020E1F708956D
:10283000BB274A3031F4992322F4BDE2909581956B
:102840009F4F0C942414BB27FB015527AA27880F00
:10285000991FAA1FA41710F0A41B83955051B9F714
:10286000A05DAA3308F0A95DA193009779F7B11193
:10287000B1931192CB010C943D14DC01FC01672F44
:1028800071917723E1F7329704C07C916D93708347
:102890006291AE17BF07C8F308950E948F1408F421
:1028A00081E00895E89409C097FB3EF490958095E7
:1028B000709561957F4F8F4F9F4F9923A9F0F92F06
:1028C00096E9BB279395F695879577956795B79584
:1028D000F111F8CFFAF4BB0F11F460FF1BC06F5F6A
:1028E0007F4F8F4F9F4F16C0882311F096E911C07C
:1028F000772321F09EE8872F762F05C0662371F09D
:1029000096E8862F70E060E02AF09A95660F771FB0
:10291000881FDAF7880F9695879597F90895990F8C
:102920000008550FAA0BE0E8FEEF16161706E80799
:10293000F907C0F012161306E407F50798F0621BBA
:10294000730B840B950B39F40A2661F0232B242B8F
:10295000252B21F408950A2609F4A140A6958FEFAE
:10296000811D811D08950E94C6140C9437150E9484
:10297000291538F00E94301520F0952311F00C94A1
:1029800020150C94261511240C946B150E944815E3
:1029900070F3959FC1F3950F50E0551F629FF001B2
:1029A000729FBB27F00DB11D639FAA27F00DB11DCB
:1029B000AA1F649F6627B00DA11D661F829F222754
:1029C000B00DA11D621F739FB00DA11D621F839FDB
:1029D000A00D611D221F749F3327A00D611D231FB1
:1029E000849F600D211D822F762F6A2F11249F57FF
:1029F00050409AF0F1F088234AF0EE0FFF1FBB1F02
:102A0000661F771F881F91505040A9F79E3F5105C0
:102A100080F00C9420150C946B155F3FE4F3983E06
:102A2000D4F3869577956795B795F795E7959F5F6A
:102A3000C1F7FE2B880F911D9695879597F90895FC
:102A400097F99F6780E870E060E008959FEF80EC61
:102A5000089500240A941616170618060906089504
:102A600000240A9412161306140605060895092E6A
:102A70000394000C11F4882352F0BB0F40F4BF2BD9
:102A800011F460FF04C06F5F7F4F8F4F9F4F089519
:102A900057FD9058440F551F59F05F3F71F047950F
:102AA000880F97FB991F61F09F3F79F087950895F4
:102AB000121613061406551FF2CF4695F1DF08C013
:102AC000161617061806991FF1CF86957105610530
:102AD00008940895E894BB2766277727CB0197F9D8
:102AE00008952F923F924F925F926F927F928F92B2
:102AF0009F92AF92BF92CF92DF92EF92FF920F938D
:102B00001F93CF93DF93CDB7DEB7CA1BDB0B0FB696
:102B1000F894DEBF0FBECDBF09942A883988488853
:102B20005F846E847D848C849B84AA84B984C884E9
:102B3000DF80EE80FD800C811B81AA81B981CE0FE0
:102B4000D11D0FB6F894DEBF0FBECDBFED010895C5
:042B5000F894FFCF27
:102B5400000040038000000000001B01FF06E400A9
:102B6400C200D600620100000000990469046104F7
:102B74004D043E043D040D0A00434F4E54524F4C45
:042B84002000090024
:00000001FF
